:020000040800F2
:10000000F86A0020AD010008972D0008B30200082F
:10001000952D0008E5040008355700080000000091
:10002000000000000000000000000000BF01000808
:10003000E704000800000000FF0100082D38000858
:10004000C7010008C7010008C7010008C701000870
:10005000C7010008C7010008C7010008C701000860
:10006000C7010008C7010008C7010008C701000850
:10007000C7010008C7010008C7010008C701000840
:10008000C7010008C7010008C70100080000000000
:10009000000000000000000000000000C701000890
:1000A000C7010008C7010008D5390008C7010008CA
:1000B000C7010008C7010008C7010008C701000800
:1000C000C7010008C7010008C70100080136000881
:1000D000C7010008C7010008C701000800000000B0
:1000E000C7010008C7010008C701000800000000A0
:1000F000000000000000000000000000C701000830
:1001000000000000C7010008C7010008C70100087F
:1001100000000000000000000000000000000000DF
:10012000C7010008C7010008C7010008C70100088F
:10013000C7010008000000000000000000000000EF
:10014000000000000000000000000000992D0008E1
:10015000C7010008C7010008C7010008C70100085F
:10016000C7010008C70100080000000000000000EF
:10017000000000000000000000000000000000007F
:1001800000000000C701000800000000000000009F
:10019000C7010008C7010008DFF80CD000F060F9C3
:1001A00000480047DB040008F86A00200648804742
:1001B00006480047FEE7FEE7FEE7FEE7FEE7FEE74C
:1001C000FEE7FEE7FEE7FEE7813900089901000837
:1001D000EFF3108072B6704780F310887047434A7F
:1001E0001368012B04D04FF001031360404A1060E4
:1001F000404A116040484FF0805101607047EFF372
:10020000108272B63948016851B34FF000010160A5
:100210003748016891B1EFF309811EF0100F08BF54
:1002200021ED108B21E9F00F4FF000041EF0100FAC
:1002300008BF012441F8044D006801602D49096898
:10024000096808C9B1E8F00F002B18BFB1EC108B9A
:1002500081F309884EF0100E002B18BF2EF0100EFF
:1002600082F310884EF0040E704722490860EFF3C5
:10027000148222F0040282F314881D494FF000001A
:1002800008601A494FF0010008601C484FF47F01D4
:10029000D0F8002041EA0201016017484FF0805178
:1002A000016017480068006880F3088861B662B68C
:1002B00070471EF0040F0CBFEFF30880EFF30980C6
:1002C00020E9F00F40F804ED40F804ED1EF0040FB3
:1002D0000CBF80F3088880F3098800B509F072F834
:1002E0005DF804EB4EF0040E70470000140200208D
:1002F0000C0200201002002004ED00E020ED00E0E0
:1003000008ED00E02DE9F05F0546002092469B468F
:1003100088460646814640241BE02846414647461B
:10032000224600F08AF853465A46C01A914110D32B
:1003300011461846224600F071F82D1A67EB0108A5
:100340004F4622460120002100F068F817EB000913
:100350004E41201EA4F10104DFDC484631462A4606
:100360004346BDE8F09F40EA01039B0703D009E044
:1003700008C9121F08C0042AFAD203E011F8013B91
:1003800000F8013B521EF9D27047D2B201E000F8EA
:10039000012B491EFBD270470022F6E710B5134629
:1003A0000A4604461946FFF7F0FF204610BD421EDC
:1003B00012F8013F002BFBD111F8013B02F8013B81
:1003C000002BF9D1704710B5044604E00B7800F813
:1003D000013B03B1491C521EF8D2204610BD421CFD
:1003E00010F8011B0029FBD1801A7047034611F851
:1003F000012B00F8012B002AF9D11846704730B5BF
:1004000005460020034600E05B1C934205D2EC5CED
:10041000C85C201A01D1002CF6D130BD202A04DBA3
:10042000203A00FA02F1002070479140C2F1200307
:1004300020FA03F3194390407047202A04DB203A46
:1004400021FA02F00021704721FA02F3D040C2F1F4
:100450002002914008431946704700207047000071
:10046000064C074D06E0E06840F0010394E8070001
:1004700098471034AC42F6D3FFF792FE1CAB00084D
:100480003CAB000870B58C1810F8015B15F0070341
:1004900001D110F8013B2A1106D110F8012B03E01D
:1004A00010F8016B01F8016B5B1EF9D12B0705D425
:1004B0000023521E0DD401F8013BFAE710F8013B6E
:1004C000CB1A921C03E013F8015B01F8015B521E8A
:1004D000F9D5A142D8D3002070BD10B509F0BCFEFB
:1004E000002010BDFEE7704770470022AFF3008088
:1004F00030B5044601200D4B5D7A002D14D1587A99
:100500001D54587A03EB800044605C7A03F10800C4
:100510002254587A421C5A72303008703A2048707F
:100520002F208870CD70002030BD0000703C00206E
:1005300010B50B480168001D0468001D00680844E0
:1005400000280BD00822074902F0CAF805492046C6
:100550000422BDE81040103102F0C2B810BD000006
:10056000107AFF1F5E00002090F83510022903D09A
:100570008021416501207047052180F83510006811
:10058000016821F0010101600020704770B5044648
:1005900000F0E2F80546601C02D0044800780444EC
:1005A00000F0DAF8401BA042FAD370BD980000209A
:1005B0002DE9F84F0022DFF87091DFF86C8109F126
:1005C00008094FF0010E4FF00F0C09F1040A0EFA62
:1005D00002F60B683340B34271D14C68022C01D053
:1005E000122C11D1D40800EB84073D6A5407E40EA5
:1005F0000CFA04FB25EA0B05D1F810B00BFA04FB4A
:100600004BEA050BC7F820B0076854000325A54046
:10061000AF4391F804B00BF0030B0BFA04FB4BEA69
:10062000070BC0F800B04F68012F05D0022F03D090
:10063000112F01D0122F11D18768AF43D1F80CB020
:100640000BFA04FB4BEA070BC0F808B04768B74346
:100650000E79C6F3001696403E434660C668AE4328
:100660008D68A5403543C5604C68E40056D52F4CD5
:10067000256845F480452560246804F4804400948E
:100680002B4C22F003052E19D6F808789407250F75
:100690000CFA05F4A743274CA04201D1002415E031
:1006A000254CA04201D1012410E0244CA04201D1EC
:1006B00002240BE0224CA04202D1032406E02DE0EC
:1006C000204CA04201D1042400E00724AC403C436C
:1006D000C6F80848D8F800409C434D68ED0300D5A3
:1006E0001C43C8F80040104D2D1D2C689C434E68DB
:1006F000B60300D51C432C60D9F800409C434D68DC
:10070000ED0200D51C43C9F80040DAF800409C43D4
:100710004D68AD0200D51C43CAF80040521C102A97
:10072000FFF455AFBDE8F88F003C0140443802406B
:100730000030014000000240000402400008024076
:10074000000C024000100240002A01D08161704775
:10075000090481617047000001488068704700000B
:100760009800002002488168027811448160704737
:100770009800002010B50B48016841F40071016039
:10078000016841F480610160016841F48071016099
:10079000032000F089F8002000F006F800F03EF891
:1007A000002010BD003C024010B588B00146002278
:1007B0001A2000F059F81A2000F048F800241348D5
:1007C000016841F480210160006800F480200190FC
:1007D00002A903A800F04AFE00F07CFE0C49B0FB21
:1007E000F1F1491E0C480B4A026040F2E732C26048
:1007F00041600461846001F0B1FD10B1012008B0D6
:1008000010BD054801F0C7FDF9E70000443802407B
:1008100040420F0000480140103C002008B50A4843
:10082000016841F480410160006800F4804000905C
:100830000548001F016841F080510160006800F028
:100840008050009008BD000044380240002809DBB9
:1008500000F01F02012191404009800000F1E020DA
:10086000C0F8001170470000F0B40D460D4B1B6836
:10087000C3F30223C3F10704042C00D90424191D77
:10088000072901D2002300E0DB1E012606FA04F14D
:10089000491E294099409E40761E16403143F0BCC7
:1008A00005F031B90CED00E000F00701054A1068D1
:1008B0004FF6FF03184040EA012003490843106047
:1008C000704700000CED00E00000FA05704700687A
:1008D00041620020704770B50368586A002907D04C
:1008E0009C6A00EB144400204FF48275491E0AE014
:1008F00040EA024098620DE005EB80069E5904EB49
:100900001644401CC0B28842F6D305EB810144EA8C
:1009100002405850002070BDD0F8040403F01BBD05
:10092000C1EBC10200EB8202D0F80404926C03F028
:1009300064BCC1EBC10200EB8202D0F80404D2F81F
:10094000082203F0C5BCD0F8040403F006BD70B55E
:1009500004460B0601F00F00C0EBC00104EB81015F
:100960004FF001024FF0000502D53C314A7002E021
:1009700001F5FE714D70087094F8BC03012808D091
:1009800084F8BC23206804F00FFA84F8BC530020DC
:1009900070BD022070BD70B5044601F00F006268A2
:1009A000904201D9012070BD0B0601F00F01C1EB8F
:1009B000C10104EB81014FF001024FF0000502D5A7
:1009C0003C314A7002E001F5FE714D708D70087087
:1009D00094F8BC03012808D084F8BC23206804F0F4
:1009E000B9FB84F8BC53002070BD022070BD10B567
:1009F000044694F8BC0301280AD0012084F8BC0303
:100A0000080607D501F00F01206804F00BFD04E093
:100A1000022010BD206804F0F5FC002084F8BC031F
:100A200010BD01F00F01C1EBC10100EB8100D0F856
:100A3000140270472DE9F04104460F0601F00F0043
:100A4000C0EBC00104EB81014FF001064FF000053F
:100A500002D53C314E7002E001F5FE714D70087018
:100A60008A60CB704A7802B1C880022B00D10D7128
:100A700094F8BC03012809D084F8BC63206804F012
:100A8000DBF8284684F8BC53BDE8F0810220FBE780
:100A900070B50D4605F00F04C4EBC40100EB8101F5
:100AA00001F5FE71CA604B6100238B614B700C70C5
:100AB0000369012B00D10A612A0705D0027C006876
:100AC00004F0A0FB002070BD027C006804F08EFAE8
:100AD000F8E770B504460D46616805F00F008842DE
:100AE00001D9012070BD29064FF000064FF0010228
:100AF00006D5C0EBC00104EB81013C314A7006E031
:100B0000C5EBC50104EB810101F5FE714E708A70E1
:100B1000087094F8BC03012807D084F8BC2320682F
:100B200004F044FB280702D007E0022070BD217CBE
:100B300004F57172206804F0E3FA84F8BC630020C5
:100B400070BD70B50D4605F00F04C4EBC40100EB99
:100B500081013C31CA604B6100238B6101234B70E2
:100B60000C700369012B00D10A612A0705D0027CB1
:100B7000006804F047FB002070BD027C006804F0B0
:100B800035FAF8E72DE9F84F04462568284604F0C1
:100B90006BFC00287ED1206804F092FC002879D0FC
:100BA000206804F08DFC800704D52068416901F0BD
:100BB00002014161206804F083FC010304F57170B7
:100BC0004FF001084FF008094FF0100B009044D58A
:100BD0000026206804F053FC82463BE05FEACA70BE
:100BE00035D0F1B2206804F063FC0746F80707D05F
:100BF00005EB4610C0F8088B3146204602F004F998
:100C0000380707D53146204602F0CCF805EB4610F0
:100C1000C0F8089BF80603D505EB4610C0F808BBE2
:100C2000B8060CD52069012804D120680121009A5A
:100C300004F066FA05EB46102021C0F8081BB80442
:100C400005D505EB46104FF40051C0F8081B761C83
:100C50004FEA5A0ABAF1000FC0D1206804F030FC04
:100C600040035ED5206804F003FC8246002655E070
:100C70005FEACA704FD0F1B2206804F007FC074663
:100C8000F80728D006F00F0108FA01F0D5F834185B
:100C9000814300E06BE1C5F8341805EB4610C0F85D
:100CA00008892069012807D1C6EBC60004EB800043
:100CB000D0E9112111448164F1B22046FFF730FEE2
:100CC0002069012807D136B9206D20B9206801219B
:100CD000009A04F015FA380703D505EB4610C0F862
:100CE0000899F80603D505EB4610C0F808B9780650
:100CF00004D505EB46104021C0F80819B80704D503
:100D000005EB46100221C0F80819380603D5314614
:100D1000204602F0EDF8761C4FEA5A0ABAF1000FAD
:100D2000A6D1206804F0CCFB002811DAD5F804081D
:100D300020F00101C5F8041894F8F40301282BD021
:100D4000204600F0E6F92068416901F00041416168
:100D5000206804F0B5FB00050BD5D5F80808C007DE
:100D600002D0204600F01AFA2068416901F40061BF
:100D70004161206804F0A4FBC0045CD5D5F80408E8
:100D800020F00101C5F804181021206804F04AFB86
:100D900000214FF67F3219E0002084F8F40300218F
:100DA0002046FFF793FDCEE705EB411000F51060FC
:100DB0008260036823F400130360C0F80822D0F8AF
:100DC000003223F40013C0F80032491C60688842E6
:100DD000EAD8D5F81C0840F00111C5F81C18206BA2
:100DE00060B1D5F8840840F00B01C5F88418D5F837
:100DF000440840F00B01C5F844180CE0D5F814087D
:100E000042F22B010843C5F81408D5F8100840F049
:100E10000B01C5F81018D5F8000820F4FE61C5F8DC
:100E20000018217C2068009A04F06AF92068416962
:100E300001F480514161206804F042FB800415D523
:100E4000206803F03BFF206804F0FEFAE06000F049
:100E50002BFB0146227B206804F074FB204600F047
:100E600045F92068416901F400514161206804F0AE
:100E700027FBC00635D52068816921F0100181610A
:100E80002F6A07F00F00C0EBC00004EB800606F5E8
:100E9000FE76C7F34340022802D0062812D01BE09A
:100EA00047F6F070074217D0C7F30A1217462846D4
:100EB000F16804F009FBF0683844F060B069384428
:100EC000B06109E008222846009904F0FDFAB069F3
:100ED000C7F30A110844B0612068816941F010012C
:100EE0008161206804F0ECFA000707D5204600F085
:100EF00014F92068416901F008014161206804F09B
:100F0000DFFAC00208D50021204600F032F8206840
:100F1000416901F480114161206804F0D1FA800236
:100F200008D50021204600F028F82068416901F426
:100F300000114161206804F0C3FA400007D5204643
:100F4000FFF7EAFC2068416901F0804141612068B7
:100F500004F0B6FA40070AD520684568680702D54C
:100F60002046FFF7F0FC2068416829434160BDE856
:100F7000F88FD0F8040403F049BAD0F8040403F061
:100F800047BA2DE9F0418AB00446002C05D0266806
:100F900094F8BD03002520B108E001200AB0BDE8A7
:100FA000F08184F8BC53204600F05EF8032084F8FA
:100FB000BD03F06BC00500D42561206804F010F873
:100FC00004F11001282288466846FFF7CCF994E81E
:100FD0000F0003F08DFE022718B184F8BD730120C5
:100FE000DCE70021206804F07EFA002101260DE0F4
:100FF000C1EBC10004EB80003C3046700170C18041
:10100000C5708560C5604561491CC9B26068884289
:10101000EED800210DE0C1EBC10004EB800000F52B
:10102000FE7045700170C5708560C5604561491CE2
:10103000C9B260688842EED8282241466846FFF768
:1010400092F994E80F0003F009FF18B184F8BD731A
:101050000120A3E784F8385084F8BD63206803F0CA
:10106000F1FE00209AE7000010B586B00446142176
:1010700001A8FFF791F92068B0F1A04F2FD100210E
:101080001848026842F001020260006800F00100A6
:1010900000904FF4C0500190022002900391032071
:1010A00004900A20059001A90F48FFF781FA0D4826
:1010B000001D016841F0800101600A481430016898
:1010C00041F480410160006800F4804000900022FB
:1010D00011464320FFF7C8FB4320FFF7B7FB06B0DC
:1010E00010BD0000303802400000024070B50446D8
:1010F0000125E068022801D0FFF7F6F92946D4F867
:10110000040403F0D7F9D4F80404BDE8704003F0F8
:1011100096B9D0F8040403F0BBB9D0F8040403F086
:10112000BDB910B5044694F8BC0301280BD00120CA
:1011300084F8BC0384F83810206804F0ECF900202F
:1011400084F8BC0310BD022010BDD0F8042400F5C3
:101150007171104603F0BAB910B50446206894F8CE
:10116000BC13012906D0012184F8BC13A16A01290E
:1011700002D008E0022010BDA169012903D0816BD3
:1011800041F480318163206803F050FE206804F050
:1011900033F9002084F8BC0310BD000010B50446EC
:1011A000D4F8040403F0D1F92068D0F8001E41F00F
:1011B0000101C0F8001E206A002804D0024801681E
:1011C00041F00601016010BD10ED00E02DE9F8438B
:1011D00004464FF0010820684FF00007C10701D115
:1011E00040072DD5DFF82891C9F86870FFF7B4FAE9
:1011F0000646484D07E0FFF7AFFA801B022802D9E8
:101200000320BDE8F88328680001F4D4A068217B9E
:10121000800140EA0170616808433E4984310860FA
:10122000C9F86880FFF798FA064606E0FFF794FAD7
:10123000801B022801D90320E3E728680001F5D5C7
:101240002078800753D533484030016841F0805101
:101250000160006800F0805000902F4D286840F435
:1012600080702860FFF778FA064606E0FFF774FA08
:10127000801B022801D90320C3E72868C005F5D5E3
:10128000244D7035286800F44070F8B1218A01F4CB
:10129000407181421AD0286820F440701F49C1F87B
:1012A00000800F6028602868C0070FD0FFF754FA4D
:1012B000074641F2883606E0FFF74EFAC01BB042FF
:1012C00001D903209DE728688007F5D520691149D9
:1012D000C0F301220831032A11D0086820F4F81065
:1012E00008602868218AC1F30B0108432860207830
:1012F000000702D50A49207D0860002081E70A68BE
:10130000084B22F4F812184002430A60E9E7000093
:10131000000047420038024000700040400E474243
:10132000E0114742FFFCFF0F2DE9F04704460D4650
:10133000002C13D0DFF82491D9F80000EFB200F0B0
:101340000F00A8420CD289F80070D9F8000000F014
:101350000F00A84204D00120BDE8F0870120FBE780
:1013600020683F4E810712D5400703D5306840F40E
:10137000E05030602078000703D5306840F46040CA
:1013800030603068A16820F0F000084330602078B9
:10139000C00731D0324960680839012808D00228D6
:1013A0000BD0032809D0096889070BD40120D3E7A3
:1013B0000968890306D40120CEE70968890101D4B0
:1013C0000120C9E7316821F0030101433160FFF7D3
:1013D000C3F9804641F2883A07E0FFF7BDF9A0EB78
:1013E0000800504501D90320B6E73068616800F075
:1013F0000C00B0EB810FF0D1D9F8000000F00F0025
:10140000A84209D989F80070D9F8000000F00F004F
:10141000A84201D001209FE72078400705D5306819
:10142000E16820F4E050084330602078000706D5DA
:101430003068216920F4604040EAC100306000F06B
:1014400059F83168074AC1F30311515CC840064995
:1014500008600020FFF7A8F900207DE7003C02406B
:101460000838024093A50008A40000200F22026063
:101470000B4A136803F003034360136803F0F0039F
:101480008360136803F4E053C360126802F460429F
:10149000D20802610348006800F00F00086070473E
:1014A00008380240003C02400148006870470000D4
:1014B000A400002000B5FFF7F7FF04490968044ABB
:1014C000C1F38221515CC84000BD000008380240D1
:1014D000A3A5000800B5FFF7E7FF04490968044A1F
:1014E000C1F34231515CC84000BD000008380240E1
:1014F000A3A5000810B51748006810F00C011648A5
:1015000016D0164B042912D0082911D1114C241FD2
:10151000216801F03F02216849020AD52068C0F322
:101520008810A0FB03010023FEF7ECFE09E018463B
:1015300010BD21680023C1F38811A1FB0001FEF753
:10154000E1FE2168C1F30141491C4900B0FBF1F003
:1015500010BD0000083802400024F40040787D01EE
:101560002DE9F84F0446002C10D02078DC4DC00740
:1015700057D0DB4808300168C1F3810101290DD043
:101580000068C0F38100022803D00EE00120BDE80E
:10159000F88FD348001D0068400206D528688003F4
:1015A0003FD5606870BB0120F1E76068B0F5803F0F
:1015B00010D0B0F5A02F12D0286820F48030286019
:1015C000286820F4802028606068E0B1FFF7C4F844
:1015D000064614E0286840F480302860F4E7286864
:1015E00040F480202860286840F480302860EBE7D1
:1015F000FFF7B2F8801B642801D90320C7E72868E9
:101600008003F5D50DE0FFF7A7F8064606E0FFF7E3
:10161000A3F8801B642801D90320B8E72868800359
:10162000F5D42078AF4F80074FF0000849D5AC487B
:101630000830016811F00C0F09D00068C0F3810078
:10164000022814D1A648001D006840020FD4286863
:10165000800704D5E068012801D0012097E72868B9
:10166000216920F0F80040EAC100286029E0E06824
:10167000B8B101203860FFF76FF8064606E0FFF7C3
:101680006BF8801B022801D9032080E728688007B7
:10169000F5D52868216920F0F80040EAC1002860EB
:1016A0000FE0C7F80080FFF757F8064606E0FFF79F
:1016B00053F8801B022801D9032068E728688007B7
:1016C000F5D42078000729D5DFF81492864861699F
:1016D00009F1740989B101210160FFF73DF806465F
:1016E00006E0FFF739F8801B022801D903204EE7F6
:1016F000D9F800008007F4D510E0C0F80080FFF7AB
:101700002BF8064606E0FFF727F8801B022801D9D0
:1017100003203CE7D9F800008007F4D42078400784
:1017200072D50026DFF8B8A10AF1400ADAF8000005
:10173000C0000BD4DAF8000040F08050CAF8000076
:10174000DAF8000000F0805000900126DFF89CB12C
:10175000DBF80000C00515D4DBF8000040F4807011
:10176000CBF80000FEF7F8FF814607E0FEF7F4FF34
:10177000A0EB0900022801D9032008E7DBF80000EC
:10178000C005F3D5DFF858B1A0680BF1700B012844
:1017900013D0052818D0DBF8000020F00100CBF8AA
:1017A0000000DBF8000020F00400CBF80000A06887
:1017B00030B3FEF7D1FF81461DE0DBF8000040F0BA
:1017C0000100CBF80000F2E7DBF8000040F0040075
:1017D000CBF80000DBF8000040F00100CBF800007F
:1017E000E5E7FEF7B9FFA0EB090141F2883081423D
:1017F00001D90320CBE6DBF800008007F1D512E029
:10180000FEF7AAFF81460AE015E0FEF7A5FFA0EB70
:10181000090141F28830814201D90320B7E6DBF8A3
:1018200000008007F1D4012E05D1DAF8000020F085
:101830008050CAF80000A069C0B32949083109687E
:10184000C1F38101022949D0022805D0C7F8608080
:10185000FEF782FF04463CE0C7F86080FEF77CFF9D
:10186000064606E0FEF778FF801B022801D9032018
:101870008DE628688001F5D4D4E907010843616A40
:10188000A26A4FF0FF33890103EB520241EA0241A1
:10189000084394F82C1040EA01611148001D0160D2
:1018A00001203866FEF758FF044607E014E0FEF713
:1018B00053FF001B022801D9032068E62868800135
:1018C000F5D509E0FEF748FF001B022801D90320E7
:1018D0005DE628688001F5D4002058E6012056E630
:1018E0000038024000004742800E4742007000402E
:1018F0000068503000EB810000687047006850308D
:1019000000EB81000260704710B50B46006841682B
:101910000D480140080CD870C1F304245C7001F03C
:101920003F049C70C1F342311970002A0AD101F0C2
:101930002DFBD870587801F029FB5870987801F089
:1019400025FB9870002010BD3FFFFF0010B50B462F
:101950000168896A596001680969C1F30E019960DB
:10196000006801680E480140C1F305401870C1F3DA
:1019700006245C7001F07F049C7001F48001090C66
:10198000D970002A0AD101F001FB1870587801F0D3
:10199000FDFA5870987801F0F9FA9870002010BD9F
:1019A0007F7F7F0070B50446002C02D0607F10B1AD
:1019B00006E0012070BD00202077204600F04EF8A0
:1019C000022060772168CA2048622168532048625B
:1019D000204601F0EFFAFF25042620B12068456279
:1019E0006677012070BD206881681B4A11408160C4
:1019F0002068816862681143D4E904231A431143C3
:101A000081602168E068086120680169228941EAF3
:101A1000024101612068C16821F08001C160206835
:101A20008068800608D4204600F00CF920B12068B8
:101A300045626677012070BD2068016C21F4802129
:101A400001642068016CA269114301642068456249
:101A500001206077002070BDBFFF8FFF0068034941
:101A6000884202D1024901200860704700280040E6
:101A70003C0E47422DE9F04704460B46207F0128E3
:101A800007D04FF0010884F81C80022060771AB15B
:101A900009E00220BDE8F0875878C10603D500F0C0
:101AA000EF000A305870F2B19878D97840EA0145D1
:101AB00058781978000240EA413005432168CA206D
:101AC0004862216853204862204601F073FA0026DC
:101AD000FF274FF00409B8B12068476284F81D90D1
:101AE00026770120D6E7D87801F059FA0204587811
:101AF00001F055FA42EA0022987801F050FA0243C8
:101B0000187842EA4035D9E70F480540206845601B
:101B10002068C16821F08001C1602068806880066B
:101B20000AD4204600F08EF830B12068476284F86D
:101B30001D9026770120ADE72068476284F81D805C
:101B400026770020A6E700003FFFFF002DE9F047C1
:101B500004460D46207F01282DD04FF0010984F85E
:101B60001C900220607700263AB320688068400607
:101B700000D4EE70A878297840EA01476878E978BF
:101B8000000240EA014007432168CA2048622168F8
:101B900053204862204601F00DFA4FF0FF084FF045
:101BA000040A00B32068C0F8248084F81DA02677BA
:101BB0000120BDE8F0870220FBE72068806840062E
:101BC00000D4EE70287801F0EAF90204687801F098
:101BD000E6F942EA0022A87801F0E1F90243E87848
:101BE00042EA0047D0E716480740206807602068AF
:101BF000816821F480218160D5E9031001432068C8
:101C00008268114381602068C16821F08001C16051
:101C10002068806880060BD4204600F013F838B1A5
:101C20002068C0F8248084F81DA026770120C0E732
:101C30002068C0F8248084F81D9026770020B8E73B
:101C40007F7F7F0070B505462868C16821F0A0013C
:101C5000C160FEF781FD04464FF47A7606E0FEF798
:101C60007BFD001BB04201D9032070BD2868C0680D
:101C70008006F4D5002070BD7047000038B50446DA
:101C8000206842688168C9434B060AD5CB0708D152
:101C9000D3435B0605D4216C01B02046BDE830403B
:101CA00008478B0708D4D3431B0605D4616C01B0E9
:101CB0002046BDE8304008478B0603D54B0601D5CA
:101CC000CB0551D4D3439B064ED44B060AD494F88B
:101CD0005130032B49D0636D43F004036365C3683F
:101CE000836800938B0609D4636D43F00103636539
:101CF00083680093036823F040030360C80506D49B
:101D0000606D40F008006065206880680090606D3C
:101D1000002829D02068416821F0E00141600120BD
:101D200084F85100900701D4D00722D02068416880
:101D300021F003014160114DE06C40B10565E06C9C
:101D4000FEF712FC18B1606D40F040006065A06CB9
:101D5000002809D00565A06CFEF706FC002803D01A
:101D6000606D40F04000606538BDC16880680090DB
:101D700038BD2046FFF780FF38BD00000D36000853
:101D800070B50446002C05D00025A56294F85100DA
:101D900010B106E0012070BD84F85050204600F0DC
:101DA00031F8022084F851002068016821F04001D8
:101DB0000160D4E901010843D4E903121143084347
:101DC00061690843218B01F400710843E16908430C
:101DD000216A0843A16A084321680860A0690421B8
:101DE00001EA1040616A0843216848602068C169BF
:101DF00021F40061C1616565012084F85100002073
:101E000070BD0000F0B587B00446142102A8FEF7AB
:101E1000C3FA2049206888423AD100271E48016849
:101E200041F480510160006800F4805001901A482C
:101E30001438016841F001010160016801F00101FD
:101E40000191016841F002010160006800F00200A8
:101E50000190A02002900226039604970325059581
:101E60000524069402A90D48FEF7A2FB102002905B
:101E7000039604970595069402A90948FEF798FB76
:101E8000002211462320FEF7EFFC2320FEF7DEFCA4
:101E900007B0F0BD0030014044380240000002406D
:101EA000000402402DE9F84F04468A4691461D463B
:101EB000002660684FF0040BB0F5827F01D1A06866
:101EC00088B194F85000012818D0012084F85000FF
:101ED000FEF742FC074694F851004FF00008012835
:101EE0000ED002267DE084F851B04B465246514652
:101EF0002046009500F03EF9BDE8F88F0220FBE790
:101F0000BAF1000F1BD0B9F1000F18D084F851B00E
:101F1000C4F85480C4F838A0A4F83C90A4F83E90CB
:101F2000C4F83080A4F83480A4F83680C4F8408027
:101F3000C4F84480A068B0F5004F02D006E0012646
:101F40004FE02068016821F4804101602068016849
:101F5000490603D4016841F040010160E068B0B176
:101F600031E020688168C90709D0007BA16B087047
:101F7000A06B401CA063E08F401EE08707E0FEF7E7
:101F8000EBFBC01BA84201D3681C04D11DB1E08F3C
:101F90000028E6D11AE0032623E020688168C907FB
:101FA00009D0C068A16B0880A06B801CA063E08F83
:101FB000401EE08707E0FEF7CFFBC01BA84201D31D
:101FC000681C15D1A5B1E08F0028E6D13A46294614
:101FD000204601F023FB08B120206065606D00B150
:101FE0000126012084F8510084F85080304683E7B0
:101FF0000326F6E72DE9F84F04468B4692461D4628
:10200000002694F8500001280DD04FF0010984F803
:102010005090FEF7A1FB074694F85100B046012806
:1020200004D00226A0E00220BDE8F88FBBF1000F2B
:102030001CD05FEA0A0019D0032084F85100C4F8CC
:102040005480C4F830B0A4F834A0A4F836A0C4F882
:102050003880A4F83C80A4F83E80C4F84480C4F8DA
:102060004080A068B0F5004F02D006E001267BE07A
:102070002068016841F480410160206801684906D8
:1020800003D4016841F040010160E068B0F5006FE1
:1020900005D0606878B3BAF1010F2DD04DE06068CB
:1020A00010B1BAF1010F20D1206B21680088C860FF
:1020B000206B801C2063E08E401EE08615E02068C7
:1020C0008168890709D5216B0988C160206B801C54
:1020D0002063E08E401EE08607E0FEF73DFBC01B5C
:1020E000A84201D3681C04D11DB1E08E0028E6D1BE
:1020F00026E0032638E0FFE7206B216800780873AC
:10210000206B401C2063E08E401EE08615E02068B6
:102110008168890709D5216B09780173206B401C00
:102120002063E08E401EE08607E0FEF715FBC01B33
:10213000A84201D3681C0ED16DB1E08E0028E6D113
:102140003A462946204601F0AFFA08B120206065E2
:10215000A06810B105E0032606E02068C168806829
:102160000090606D00B1012684F8519084F8508091
:10217000304659E72DE9F84F04460A9E8A469346B1
:102180001F4601254FF0000894F8500001280ED09A
:10219000012084F85000FEF7DFFA814694F85100E0
:1021A000616801280DD0B1F5827F07D102E00220DD
:1021B000BDE8F88FA16809B9042802D04FF00208E1
:1021C000C3E0BAF1000F28D0BBF1000F25D03800D2
:1021D00023D094F85100042802D0052084F851003F
:1021E00000206065C4F838B0E787A787C4F830A03E
:1021F000E786A7862064606420680168490603D4E6
:10220000016841F040010160E068B0F5006F07D05F
:102210006068E8B3012F48D07DE04FF0010894E0FA
:10222000606808B1012F39D1206B21680088C8602F
:10223000206B801C2063E08E401EE0862EE020682C
:10224000816889070DD5E18E59B1012D09D1216B26
:102250000988C160206B801C2063E08E401EE086F0
:10226000002520688168C9070BD0E18F49B1C0689B
:10227000A16B0880A06B801CA063E08F401EE087EC
:102280000125FEF769FAA0EB0900B04206D300E091
:102290000BE0701C02D04FF0030856E0E08E0028DF
:1022A000CDD1E08F0028CAD13BE0206B21680078B7
:1022B0000873206B401C2063E08E401EE0862AE0FD
:1022C0002068816889070DD5E18E59B1012D09D1AA
:1022D000216B09780173206B401C2063E08E401E47
:1022E000E086002520688168C9070BD0E18F49B1DD
:1022F000C068A16B0870A06B401CA063E08F401EFB
:10230000E0870125FEF728FAA0EB0900B04201D3CF
:10231000701C11D186B1E08E0028D1D1E08F002849
:10232000CED14A463146204601F0BEF938B14FF0D1
:1023300001082020606508E04FF0030805E0A06870
:1023400018B92068C168806800900120503460701E
:102350000020207040462BE77047704710B50446B8
:10236000002C03D094F83D0010B107E0012010BD0F
:10237000002084F83C00204600F00CF8022084F88D
:102380003D00211D206801F02BFB012084F83D0059
:10239000002010BD70470168CA6842F00102CA609F
:1023A0000068816801F00701062903D0016841F047
:1023B0000101016000207047704770B50446206835
:1023C00001694FF00005C943890716D4C168C943A4
:1023D000890712D4E91E01610120207720688069F5
:1023E000800703D02046FFF7E7FF05E0204600F016
:1023F0009BF8204600F099F8257720680169C943C9
:10240000490718D4C168C943490714D46FF00401BF
:102410000161022020772068806910F4407F03D09A
:102420002046FFF7C9FF05E0204600F07DF8204672
:1024300000F07BF8257720680169C943090717D4A4
:10244000C168C943090713D46FF008010161042072
:1024500020772068C069800703D02046FFF7ACFFD3
:1024600005E0204600F060F8204600F05EF8257791
:1024700020680169C943C90618D4C168C943C9069F
:1024800014D46FF010010161082020772068C06922
:1024900010F4407F03D02046FFF78EFF05E0204672
:1024A00000F042F8204600F040F8257720680169E6
:1024B000C943C90708D1C168C943C90704D1891EE6
:1024C0000161204600F032F820680169C94309061D
:1024D00009D4C168C943090605D46FF080010161C0
:1024E0002046FFF739FF20680169C943490609D42E
:1024F000C168C943490605D46FF040010161204617
:1025000000F01EF820680169C94389060BD4C16830
:10251000C943890607D46FF0200101612046BDE858
:102520007040FFF71ABF70BD7047704700680349DD
:10253000884201D1FEF716B97047000000480140FB
:10254000704770B50446002C04D094F8390000257B
:1025500010B106E0012070BD84F83850204600F02C
:1025600023F8242084F839002068C16821F4005140
:10257000C160204601F080FA2068016921F4904191
:1025800001612068416921F02A0141612068C16828
:1025900041F40051C160E563202084F8390084F8DB
:1025A0003A00002070BD000010B586B0044614212A
:1025B00001A8FDF7F1FE14492068884221D1134893
:1025C000016841F010010160006800F01000009007
:1025D0000E481438016841F001010160006800F004
:1025E000010000904FF4C060019002200290012091
:1025F0000390032004900720059001A90448FDF7EB
:10260000D7FF06B010BD0000001001404438024062
:10261000000002402DE9F84304460D4691461E464F
:1026200094F83900202802D00220BDE8F883B5B123
:10263000B9F1000F13D094F83800012811D001200F
:1026400084F838000027E763212084F83900FEF77A
:1026500083F88046A4F82490A4F826902DE0012069
:10266000E3E70220E1E7E08C401EE084A068B0F5DB
:10267000805F09D04346002280212046009601F069
:1026800085FBB0B10320D0E74346002280212046DD
:10269000009601F07BFB08B10320C6E7288821687B
:1026A000C0F308004860206908B16D1C05E0AD1C4E
:1026B00003E0216815F8010B4860E08C0028D2D1B6
:1026C0004346002240212046009601F05FFB08B1FE
:1026D0000320AAE720203834607027700020A4E788
:1026E000F0B500230A2530263727002412E0B5EB89
:1026F000107F04D906EB107C01F813C003E007EB50
:10270000107C01F813C0000101EB430C8CF8014070
:102710005B1CDBB29342EAD3F0BD70B50546D5F839
:10272000904204F58051087E002807D1486928B1FD
:10273000607A18B90121284601F0F5FE812128466A
:1027400001F0F1FE607A022809D141F20C00221852
:102750002846BDE870401F23012101F067BE70BD0F
:1027600070B50646D6F8904204F58055286928636E
:10277000686968630121304601F003FE1F280AD111
:102780002249E868884206D1697E012903D8A87EDB
:1027900008B110280CD9697E20230522304600F0AC
:1027A00054FE022060723046BDE87040FFF7B5BFAE
:1027B00041F21B002218304600F07AFC00280DDAA6
:1027C000207A052804D03046BDE87040FFF7A5BF49
:1027D0003046BDE87040012100F0A6B8217A0229F8
:1027E00012D0012910D003290ED0628932B104F130
:1027F0000C013046BDE8704000F0B6B83046BDE888
:102800007040002100F090B870BD00005553424365
:1028100010B5D0F89042627A022A08D009060BD58A
:10282000012A09D0BDE81040012100F07DB88121C6
:1028300001F079FE0020607210BD10B50446D4F896
:102840009022117A022909D0032901D0042915D137
:102850002046BDE81040002100F066B841F21900A2
:10286000815C801C0244204600F022FC002805DA2E
:102870002046BDE81040012100F056B810BD10B54B
:102880000446D4F89022117A002911D0012914D1DC
:1028900041F21900815C801C0244204600F008FCD3
:1028A00000280ADA2046BDE81040012100F03CB8BB
:1028B0002046BDE81040FFF753BF10BDD0F890028E
:1028C00000210172704770B50546D5F8904200218D
:1028D0002172617204F580505C3041700170D5F84E
:1028E00094020168002088470121284601F040FD3C
:1028F0008121284601F03CFD41F20C0022182846B7
:10290000BDE870401F23012101F090BDD0F8901266
:1029100000220A7201224A7241F20C021F230A4469
:10292000012101F083BD000070B50546D5F8904245
:102930000C4804F58052D06282F8381000202072D2
:1029400041F22C0022180D238121284601F005FEBA
:1029500041F20C0022182846BDE870401F230121D7
:1029600001F064BD55534253F0B41546D0F890427F
:1029700004F580525369AB4200D32B469BB2566B91
:10298000751B5563002582F8385004222272F0BC72
:102990000A46812101F0E1BD10B59CB029492A48C1
:1029A000FDF7A3FD274C641E2070002817D100906E
:1029B00026A3312229492AA006F04EFE0122611CDD
:1029C0002B4804F0B1FC207058B102202070C002E6
:1029D00000220090274B1146601C04F0DBF91CB06C
:1029E00010BD009019A343221C491DA006F034FE1F
:1029F000062221A1234804F0C7FC0028EFD1224879
:102A0000416802680B0D21A103A803F055F803A843
:102A1000FDF7E5FC024602AB03A91A4804F0F4FDF9
:102A2000264903A803F048F803A8FDF7D8FC02469E
:102A300002AB03A9134804F0E7FD124804F094F92F
:102A4000CDE7000019000020040000202E2E2F5397
:102A500072632F66617466732E63000061A50008BF
:102A600025732025642025732025640A00000000BA
:102A700040020020B422002044657665626F782E03
:102A800074787400701200202402002057323551EF
:102A900058580D0A466C6173682049443A203058F2
:102AA00025580D0A466C6173682053697A653A208F
:102AB0002564204D420D0A0D0A000000C4A900083B
:102AC0002DE9F04186B0142101A8FDF765FC002432
:102AD0002B48016841F004010160016801F0040124
:102AE0000091016841F080010160016801F08001FE
:102AF0000091016841F001010160016801F00101EC
:102B00000091016841F002010160006800F00200DC
:102B100000900122DFF86C80550329464046FDF7FE
:102B200013FE194F012210213846FDF70DFE0195C5
:102B3000012602960394049401A94046FDF738FD4E
:102B400048F24F10019003250295039401A93846DD
:102B5000FDF72EFD1020019002960394049501A923
:102B60003846FDF725FD4FF2EF7001900295039472
:102B700001A90648FDF71CFD06B0BDE8F081000084
:102B800030380240000802400000024000040240C9
:102B9000F0B587B0142102A8FDF7FEFB00240194D4
:102BA00044484349016044607F218160FF21C16046
:102BB000046144618461FEF7F5FE08B1FDF794FC01
:102BC0003D4D2C6001213B48FEF792FE43F2F2227C
:102BD00090422BD001213748FEF790FE12208DF84D
:102BE00008008DF809408DF80A40059406940122EA
:102BF00002A93048FEF7AAFF08B1FDF775FC0220D4
:102C00008DF8040011208DF8050005208DF80600D0
:102C100019208DF80700012201A92648FEF72AFF96
:102C2000002801D0FDF760FC07B0F0BD234C206800
:102C3000234F02014FF4005610D50022314638468A
:102C4000FDF782FD0920FDF7A1FC0122314638463F
:102C5000FDF77AFD40F2F310FDF798FC2068400183
:102C600021D5002231463846FDF76EFD0920FDF7DB
:102C70008DFC012231463846FDF766FD6320FDF7E5
:102C800085FC002231463846FDF75EFD0920FDF740
:102C90007DFC012231463846FDF756FD6320FDF7E5
:102CA00075FC01202860206840F080702060BBE740
:102CB00000280040B4320020240000207438024074
:102CC0000008024010B50F480D4901604FF48271B1
:102CD000416000218160C160016141614FF4007277
:102CE0008261C1610162416281620A21C162FFF7B2
:102CF00047F8002803D0BDE81040FDF7F5BB10BD34
:102D000000300140D432002010B50C480A4901605F
:102D10004FF4E131416000218160C16001610C220A
:102D200042618161C161FFF70CFC002803D0BDE85E
:102D30001040FDF7D9BB10BD001001402C3300201E
:102D400010B500220F49104801F02FFA08B1FDF725
:102D5000CBFB0E490C4801F05EFD08B1FDF7C4FB4A
:102D60000B49094801F073FC08B1FDF7BDFB0648AB
:102D700001F002FE002803D0BDE81040FDF7B4BB0F
:102D800010BD0000280000206C330020B40000209B
:102D900078000020FEE770470148FDF7F3BE000011
:102DA0000836002070B504462068056C00EB411120
:102DB000D1F8080B2369124E4FF40042012B0FD0BB
:102DC000104B9D4203D1000401D5C1F8082B2046C9
:102DD000FEF7BBF9B54210D92069012807D00CE0F5
:102DE000B542F4D90004F2D5C1F8082BEFE704F599
:102DF00071720121206802F083F9002070BD00008B
:102E00000A30544F0A31544F2DE9F04105460E4621
:102E10002968086C01EB4614D4F8083B2A694FF482
:102E200000414FF0200C012A07D02F4A904253D185
:102E3000180448D5C4F8081B52E02C4A5FEA03780E
:102E400005F5717711D5904203D9180401D5C4F85E
:102E5000081B2846FEF779F93A460121286802F056
:102E60004FF90820C4F8080B3AE05FEA836802D5FE
:102E7000C4F808CB34E013F0280F31D1904204D9C4
:102E8000180402D5C4F8081B2AE0C6EBC60005EBFF
:102E9000800000F50170D4F8102B0168C2F3120213
:102EA0008A1A0261426811444160F1B22846FDF776
:102EB00040FDAEB9D5F8100290B93A460121286814
:102EC00002F01EF90CE0980601D5C4F808CBF1B267
:102ED0002846FDF72EFD03E0F1B22846FDF729FD57
:102EE0000020BDE8F08100000A31544F0A30544FF1
:102EF0002DE9F84F80460E46D8F80070C6EBC600A4
:102F000008EB80043C34D4E90510884202D9012042
:102F1000BDE8F88F081AA168814200D20846C01C9B
:102F20004FEA900A07EB461916E0151AA268AA4262
:102F300000D21546E81C4FEA900A98F8100000905D
:102F4000ABB2F2B23846E16802F076FBE0682844A2
:102F5000E060A0692844A061D9F8180980B2504502
:102F600005D3D4E90520904201D2002ADDD1D4E96D
:102F70000501884208D806F00F0101208840D7F8E3
:102F800034188143C7F834180020C1E7010901EB68
:102F90008101490000F00F000844C0B270470021D1
:102FA00002E0491C0A38C0B20A28FAD2090740EAEE
:102FB0001160704770B505462868C168490613D48A
:102FC0004FF0FF31C160FDF7C7FB04464FF47A763E
:102FD00006E0FDF7C1FB001BB04201D9032070BD24
:102FE0002868C0684006F4D5002070BD10B5D0F840
:102FF00090421A4404F58054236E9A4206D9212344
:10300000052200F022FA4FF0FF3010BD002010BD65
:1030100010B5D0F890325478E4070BD007205881CF
:10302000104904E0401E80B21C180A5C227300287C
:10303000F8D115E0D0F8940201EBC101C06900EBB2
:1030400081010879401D1279824200D810465881CA
:1030500004E0401E80B21C180A5C22730028F8D1DC
:10306000002010BD48A6000810B50821D0F8900235
:103070004181054A04E0491E89B24418535C237318
:103080000029F8D1002010BD57A6000810B5D0F8CF
:10309000901208204881054A04E0401E80B20C18B6
:1030A000135C23730028F8D110BD00004FA6000860
:1030B00010B51378232B36D00DDC1A2B2DD005DC60
:1030C000E3B1032B1DD0122B11D11DE01B2B1ED001
:1030D0001E2B0CD11EE02A2B2ED004DC252B25D054
:1030E000282B04D125E02F2B29D05A2B18D02023B0
:1030F000052200F0AAF94FF0FF3010BD00F0C9F929
:103100001FE000F070F91CE0FFF782FF19E000F00B
:10311000BAF916E000F0B7F913E0FFF7B7FF10E0D7
:10312000FFF7A2FF0DE000F027F90AE000F0F3F846
:1031300007E000F096F804E000F0EFF901E000F09D
:10314000D1F9002010BD2DE9F04707468846D7F891
:10315000906206F58054B4F85E00A56E45434FF4C6
:1031600080518D4200D30D46B5FBF0F083B2D7F805
:10317000940206F10C01626ED0F810C089464046F8
:10318000E047002809DA112304224146384600F0BE
:103190005CF94FF0FF30BDE8F087ABB24A468121C1
:1031A000384601F0DAF9B4F85E00626EB5FBF0F172
:1031B00011446166B5FBF0F0A16E081AA066616B60
:1031C000491B616308B9032030720020E3E72DE951
:1031D000F04707460E46D7F8901201F58054B4F830
:1031E0005E00A56E45434FF48058454500D34546E3
:1031F000B5FBF0F083B2D7F894020C31626ED0F8D0
:1032000014C089463046E047002809DA0323042227
:103210003146384600F019F94FF0FF30BDE8F0872D
:10322000B4F85E00626EB5FBF0F111446166B5FB67
:10323000F0F1A26E561AA666616B491B61635EB11E
:103240004643464500D34646B3B24A460121384676
:1032500001F0ECF80020E1E700213846FFF764FBBD
:10326000F8E72DE9F047074688461546D7F89062FB
:10327000307A002846D106F580544FF0FF39207E81
:10328000000608D4617E20230522384600F0DDF8D0
:103290004846BDE8F087D7F89402816840468847E1
:1032A00038B13A2302224146384600F0CEF848466B
:1032B000EFE76879A97840EA0162E87829790004A3
:1032C00040EA012002436266287AE97940EA012354
:1032D000A36641463846FFF789FE002801DA4846D2
:1032E000D7E702203072B4F85E10A06E48436169DF
:1032F000884207D0617E20230522384600F0A5F8D9
:103300004846C6E74FF48050708141463846BDE8D4
:10331000F047FFF718BF70B505460E46D5F8904246
:10332000D5F8940204F58351436841F25E002218F7
:103330003046984740B13A2302223146284600F0F1
:1033400084F84FF0FF3070BD04F580500146006EE8
:10335000401E020E2273020C6273020AA273E07313
:10336000002020746074B1F85E00010AA174E0745A
:1033700008206081002070BD2DE9FC4106460F4603
:10338000D6F890420020002521180D73401C80B211
:103390000C28F9D3D6F8940201AA69464368384646
:1033A000984748B13A2302223946304600F04DF89A
:1033B0004FF0FF30BDE8FC810820E0730098401E0C
:1033C000010E2174010C6174010AA174E0740220E1
:1033D00020756575BDF80400010AA175E0750C2023
:1033E00060810020E6E770B5D0F89002002100234C
:1033F00044182373491CC9B21229F9D370210173EF
:103400000C21C17400F5805191F85C4091F85D5039
:10341000AC4212D000EBC40505F5805515F83C6FA1
:1034200086736E7906762D794576641CE4B281F850
:103430005C40042C01D181F85C301221418111796A
:10344000122900D84181002070BDD0F8901201F5FA
:10345000805010F85D3F01EBC30303F5805383F800
:103460003C200378002201EBC30101F5805181F873
:1034700040200178491CC9B200F85D19042901D126
:1034800080F85D207047D0F8900200214181002033
:1034900070472DE9F04105460E46D5F890424FF0B1
:1034A000FF3704F580504169002908D0417E202370
:1034B00005222846FFF7C9FF3846BDE8F081D5F858
:1034C000940282683046904748B13A23022231463E
:1034D0002846FFF7BAFF052020723846EDE70020A6
:1034E0006081EAE770B5D0F8904252784FF0FF352E
:1034F000920705D524230522FFF7A7FF284670BDB4
:1035000004F58052936E526EFFF770FD002801DAC9
:10351000284670BD0020608170BD2DE9F047074648
:1035200089461546D7F89062307A002805D049467A
:103530003846BDE8F047FFF74ABE06F580544FF025
:10354000FF38207E000608D5617E202305223846FC
:10355000FFF77BFF4046BDE8F087D7F8940281680B
:103560004846884738B13A23022249463846FFF791
:103570006CFF4046EFE7D7F89402C1684846884799
:1035800038B12723022249463846FFF75EFF4046FE
:10359000E1E76879A97840EA0162E87829790004CE
:1035A00040EA012002436266287AE97940EA012371
:1035B000A36649463846FFF719FD002801DA404660
:1035C000C9E7B4F85E10A06E48436169814207D034
:1035D000617E202305223846FFF737FF4046BAE7D1
:1035E0004FF48051884200D308460121317283B2E2
:1035F00006F10C02384600F019FF0020ABE700008E
:103600000148FEF73BBB0000D432002010B5806BB0
:103610000021C187C186FEF72FFB10BDF8B5044617
:103620004FF4827560684FF48063A8420AD1A068A5
:10363000B0F5004F01D0984204D12068066826F00A
:10364000400606606068A8421ED1A06898420DD06E
:103650000B46009200228021204600F053F808B368
:10366000606D40F0200060650320F8BD0B460092BD
:1036700000220121204600F045F898B1606D40F02D
:10368000200060650320F8BD0B4600920022012156
:10369000204600F037F828B1606D40F020006065EA
:1036A0000320F8BD0020F8BD7CB504461348144D36
:1036B0000068B0FBF5F04FF47A75684301906068DC
:1036C000B0F5827F0DD10B4600920022802120466A
:1036D00000F018F878B1606D40F0200060650320BC
:1036E0007CBD019838B10198401E01902068806827
:1036F000C0430006F5D500207CBD0000A4000020DA
:1037000000366E012DE9F04104460E4617461D466F
:10371000DDF8188008E0681C06D0FDF71DF8A0EB66
:103720000800A8420BD255B12068806836EA000034
:103730002FD00020B842EED10020BDE8F0812068F3
:10374000416821F0E00141606068B0F5827F0BD1F3
:10375000A068B0F5004F02D0B0F5806F04D12068AA
:10376000016821F040010160A06AB0F5005F09D155
:103770002068016821F4005101602068016841F46B
:10378000005101600120503460700020207003203F
:10379000D3E70120CEE70000034803690B60808A6D
:1037A0001080002070470000240200200020704795
:1037B0000020704700207047002070472DE9F0413D
:1037C0000E46154698460024084F0AE07A693046AE
:1037D00002FB05F102F04EF86D1C78690644641C8A
:1037E000A4B24445F2D30020BDE8F08124020020B9
:1037F0002DE9F0410F461446984600250A4E0EE08A
:103800007069604301F098FF7269384602FB04F169
:1038100002F0AAF8641C706907446D1CADB24545FE
:10382000EED30020BDE8F0812402002010B505F0A1
:10383000F7FE06F0AFFABDE8104005F0FFBE00004D
:1038400030B599B030210DA8FCF7A6FD142108A8C9
:10385000FCF7A2FD182102A8FCF79EFD00252348D5
:10386000016841F080510160006800F080500190D3
:103870001F48016841F440410160006800F4404085
:10388000019005200D904FF480300E9001200F9094
:10389000022413948005149019201590C0201690CE
:1038A0001794042018900DA8FDF75AFE08B1FCF7F4
:1038B0001BFE0F20089009940A954FF480500B903E
:1038C0000C95032108A8FDF72FFD08B1FCF70CFEAD
:1038D00002944FF48070069002A8FDF777FC002850
:1038E00001D0FCF701FE19B030BD000040380240A5
:1038F0000070004070B51D4E306800F00C001C4B8D
:103900001C4900280ED01C4D04280DD008280DD0CD
:103910000B603068194AC0F30310105C0A68C2409B
:103920000A6070BD0B60F4E70D60F2E70F4A121FEA
:103930001068C0F38054106800F03F0034B1B5FB4C
:10394000F0F01368C3F38813584305E0B3FBF0F0BD
:103950001368C3F3881358431268C2F30142521C20
:103960005200B0FBF2F00860D3E7000008380240D4
:103970000024F400A400002040787D0193A50008F5
:103980001048016841F4700101600F48016841F07E
:10399000010101600C4A00210832116002680B4BE2
:1039A0001A400260031D0A4A1A60026822F480224B
:1039B000026005480C3001600249580680390860F1
:1039C0007047000088ED00E000380240FFFFF6FE7F
:1039D000103000240148FEF7F0BC0000103C00202D
:1039E000F0B502681D4C1E4D1E4E1F4F4FF0804C0F
:1039F000A04207D0604505D0A84203D0B04201D014
:103A0000B84203D122F070034A681A43A04210D092
:103A100060450ED0A8420CD0B0420AD0B84208D0BF
:103A2000124B984205D0124B984202D0114B98424B
:103A300003D122F44073CA681A434B6922F0800212
:103A40001A4302608A68C2620A688262A04201D197
:103A50000969016301214161F0BD000000000140DE
:103A60000004004000080040000C004000400140FD
:103A700000440140004801402DE9F041044620681F
:103A80000169E26821F4405111430161A168206994
:103A9000E26901436069104301432068C26849F24A
:103AA0000C639A430A43C26020684169A26921F409
:103AB000407111434161E069B24AB349642532263D
:103AC000B0F5004F59D02068884201D090427DD196
:103AD000FDF700FD00EBC00101EB001061688900FB
:103AE000B0FBF1F7FDF7F6FC00EBC00101EB0010B5
:103AF00061688900B0FBF1F0B0FBF5F06FF01801E0
:103B0000484307EB800006EB0010B0FBF5F000F037
:103B1000F007FDF7DFFC00EBC00101EB001061686E
:103B20008900B0FBF1F0B0FBF5F007EB0017FDF7F3
:103B3000D1FC00EBC00101EB001061688900B0FB13
:103B4000F1F8FDF7C7FC00EBC00101EB0010616864
:103B50008900B0FBF1F0B0FBF5F06FF018014843BD
:103B600008EB800006EB0010B0FBF5F0216800F0D8
:103B70000F0038448860BDE8F0812068884201D099
:103B8000904256D1FDF7A6FC00EBC00101EB0010FE
:103B900061684900B0FBF1F0B0FBF5F00701FDF7FB
:103BA00099FC00EBC00101EB001061684900B0FB1B
:103BB000F1F8FDF78FFC00EBC00101EB001061682C
:103BC0004900B0FBF1F0B0FBF5F000E086E06FF0EB
:103BD0001801484308EB800006EBC000B0FBF5F08D
:103BE00000F0F80007EB4007FDF774FC00EBC001A4
:103BF00001EB001061684900B0FBF1F8FDF76AFCC9
:103C000000EBC00101EB001061684900B0FBF1F06E
:103C1000B0FBF5F06FF01801484308EB800006EBAD
:103C2000C000B0FBF5F0216800F007003844886060
:103C3000A1E7FDF73FFC00EBC00101EB001061685C
:103C40004900B0FBF1F0B0FBF5F00701FDF732FCE5
:103C500000EBC00101EB001061684900B0FBF1F816
:103C6000FDF728FC00EBC00101EB00106168490082
:103C7000B0FBF1F0B0FBF5F06FF01801484308EB32
:103C8000800006EBC000B0FBF5F000F0F80007EB99
:103C90004007FDF70FFC00EBC00101EB001061686D
:103CA0004900B0FBF1F8FDF705FC00EBC00101EBAA
:103CB000001061684900B0FBF1F0B0FBF5F06FF067
:103CC0001801484308EB800006EBC000B0FBF5F09C
:103CD000216800F00700384488604CE7FDF7EAFBF4
:103CE00000EBC00101EB001061688900B0FBF1F747
:103CF000FDF7E0FB00EBC00101EB001061688900FB
:103D0000B0FBF1F0B0FBF5F06FF01801484307EBA2
:103D1000800006EB0010B0FBF5F000F0F007FDF7B7
:103D2000C9FB00EBC00101EB001061688900B0FB2A
:103D3000F1F0B0FBF5F007EB0017FDF7BBFB00EB74
:103D4000C00101EB001061688900B0FBF1F8FDF7DC
:103D5000B1FB00EBC00101EB001061688900B0FB12
:103D6000F1F0B0FBF5F06FF01801484308EB80006C
:103D700006EB0010B0FBF5F0216800F00F003844AE
:103D80008860F8E600140140001001402DE9F04180
:103D900004460E4617469846069D1DE0681C1BD03B
:103DA0002DB1FCF7D9FCA0EB0800A84214D920687B
:103DB000C16821F4D071C1602068416921F001011E
:103DC0004161202084F8390084F83A00002084F80A
:103DD00038000320BDE8F0812068006836EA000062
:103DE00004D00020B842D9D00020F3E70120F9E741
:103DF00010B5D0F88C2252689047002010BD90F882
:103E00007422012A05D0022A03D0032A01D000F02F
:103E100019B84988012904D10021C0F87C1200F0AA
:103E200035B8704710B513460A46002100F0FEFA77
:103E3000002010BD10B513460A46002100F08DFB8E
:103E4000002010BD10B504468021204600F06BFB19
:103E50002046BDE81040002100F065BB10B50521EB
:103E6000C0F86C1200231A46194600F0DFFA002051
:103E700010BD10B50223C0F86C32C2610262134655
:103E80000A46002100F069FB002010BD10B5042196
:103E9000C0F86C1200231A46194600F05EFB0020A1
:103EA00010BD000010B5002806D00A46054906A03E
:103EB00000F04AF9034810BD0A46024902A000F08A
:103EC00043F9F7E7103A00204D534320436F6E66E5
:103ED00069670000122008800048704748000020F1
:103EE00010B5002806D00A46054906A000F02CF9B6
:103EF000034810BD0A46024902A000F025F9F7E781
:103F0000103A00204D534320496E74657266616318
:103F1000650000000420088000487047440000202D
:103F200010B50A46024903A000F00EF9004810BD82
:103F3000103A0020576541637400000010B5002856
:103F400006D00A46054906A000F0FEF8034810BD59
:103F50000A46024902A000F0F7F8F7E7103A0020FD
:103F60005765416374204D6173732053746F7261A0
:103F70006765000010B51A200880FCF7D9FA0148DF
:103F800010BD00005C0000200A46D188012902D043
:103F90001146FFF757BF90F87412012906D0022985
:103FA00004D0032909D01146FFF74CBF00218160DE
:103FB000012200F10801FFF75CBF0122011DFFF79C
:103FC00058BFF8B504460D466888010A082972D220
:103FD000DFE801F08D040C1F8D8D5C6AD4F8881227
:103FE000207C0A686946904701466DE0207C0226E5
:103FF00038B1D4F88C02C16A6846884701464E70D1
:1040000062E0D4F88C02816A6846884701464E70A7
:104010005AE0C0B2062834D2DFE800F0030B131BCD
:10402000232BD4F88812207C4A68694690470146C1
:104030004AE0D4F88812207C8A6869469047014695
:1040400042E0D4F88812207CCA686946904701464D
:104050003AE0D4F88812207C0A6969469047014604
:1040600032E0D4F88812207C4A69694690470146BC
:104070002AE0D4F88812207C8A6969469047014674
:1040800022E029462046FFF7DDFEF8BD207C20B166
:1040900029462046FFF7D6FEF8BDD4F88C02416BC6
:1040A0006846884701460FE0207C28B12946204613
:1040B000FFF7C8FEF8BD1AE0D4F88C02016B684621
:1040C0008847014607204870BDF8000040B1EA88E3
:1040D00032B1824200D9024600922046FFF7C9FE63
:1040E000E8880028E6D12046FFF7D0FEE2E729461F
:1040F0002046FFF7A7FEDDE7002102E0491CC9B218
:10410000401C0278002AF9D1084670470A4690F808
:104110007412012906D0022904D0032902D01146C5
:10412000FFF790BED188022902D01146FFF78ABE60
:104130000121C160D0F87C1209B10321C1600222C3
:1041400000F10C01FFF795BE70B504460D4616460A
:10415000002C17D02046FFF7CFFF022101EB4000D3
:10416000308030782870032102206970002306E037
:10417000411CC9B22A54641C481CC0B26B5422783A
:10418000002AF5D170BD01460020002906D0012982
:1041900005D0022905D0032905D00220704702204E
:1041A0007047012070470220704710B5002810D0DA
:1041B000D0F88C3213B10023C0F88C3209B1C0F8AA
:1041C0008812012180F87412027000F0DFF80020DC
:1041D00010BD022010BD10B5D0F89802FCF7DBFB33
:1041E000BDE81040FFF7CFBF10B5D0F89802FCF73C
:1041F000AEFBBDE81040FFF7C6BF70B504461346DE
:10420000002909D0D4F88C0242691AB194F87402DA
:10421000032859D0022070BD04F11400D4F86C12A8
:104220000025022903D0042940D0F1B342E0D0E9AF
:1042300003218A420DD9511AC1608AB2194620461B
:10424000FFF7F8FD00231A461946204600F0EEF865
:1042500030E08068B0FBF1F201FB12029AB98842AB
:1042600011D3D4F8701288420DD200221146204694
:10427000FFF7E0FDC4F8705200231A4619462046A5
:1042800000F0D4F816E0D4F88C02C16829B194F893
:104290007402032801D1204688478021204600F07F
:1042A00042F92046FFF7DAFD04E0FFE780212046CF
:1042B00000F039F994F87802012807D1204600F07F
:1042C000B3FA84F8785201E020469047002070BD90
:1042D00070B5044608461146002809D0D4F88C125F
:1042E0008A691AB194F8741203292FD0022070BD84
:1042F00004F5A070D4F86C32032B02D0052B1DD02E
:1043000027E0D0E903539D420AD9EB1AC360006944
:10431000834200D303469AB22046FFF783FD18E09C
:10432000D4F88C02016929B194F87402032801D1F0
:10433000204688472046FFF7A9FD0AE00020C4F880
:104340006C020021204600F0EEF802E00146204613
:104350009047002070BD0020704710B5012180F803
:104360007412D0F88C22017952689047002010BD59
:1043700010B5D0F89802FCF73AFBBDE81040FFF703
:1043800002BFD0F89802FCF74CBB000010B50178D2
:10439000002927D11449C1F80404C0F898124FF03D
:1043A000A0400860042048600222CA600020086122
:1043B0008A61C86108624862C86208630846FCF7FF
:1043C000E0FD08B1FCF790F880210748FCF77FFA80
:1043D000402200210448FCF77EFA80220121024895
:1043E000FCF779FA002010BD083600200A0601F01B
:1043F0007F01D0F89802C1EBC10100EB810002D52A
:1044000090F83E00704790F8FE017047002070471A
:104410000020704710B514461A46D0F8980223467B
:10442000FCF708FBBDE81040FFF7ADBE10B5D0F8B3
:104430009802FCF72DFBBDE81040FFF7A4BE70B555
:1044400004460022402311462046FFF7E3FF0125E2
:10445000C4F844514026C4F8506140230022802112
:104460002046FFF7D7FFA561666284F874520020EA
:10447000C4F86C026060C4F87C02D4F8900228B1E1
:10448000D4F88C020021426820469047002070BD7D
:1044900090F8751280F874120020704710B590F8EB
:1044A0007412032904D1D0F88C12C96901B188476C
:1044B000002010BD01740020704710B5D0F898029C
:1044C000FCF72FFEBDE81040FFF75DBE70B5044657
:1044D00004F52070054600F08AF90120C4F86C024A
:1044E000B4F88602C4F8700294F8802212F01F001B
:1044F0000AD001280DD0022810D002F080012046F9
:1045000000F011F8002070BD2946204600F039FA6D
:10451000F8E72946204600F05BFBF3E729462046F2
:1045200000F064FAEEE710B5D0F89802FCF7D1FA83
:10453000BDE81040FFF727BE10B5D0F89802FCF791
:104540000BFEBDE81040FFF71EBE00F51D700178A0
:104550004170042101700020704710B5D0F8980216
:10456000FCF7EFFABDE81040FFF70DBE10B5FEF7FF
:1045700064F9002010BD10B5FEF781F9002010BDD0
:1045800070B5044601212046FFF72EFE0025C4F831
:10459000585181212046FFF727FEE5622046FEF7AD
:1045A0008DF9D4F8900218B103F038FCC4F8905299
:1045B000002070BD0A210180004870474C01002096
:1045C00020210180004870470C010020202101803B
:1045D00000487047EC00002020210180004870470F
:1045E0002C01002070B504460125207C00281AD03B
:1045F0004023022201212046FFF70CFFC4F8585146
:104600004023022281212046FFF704FFE56241F2A8
:104610006C0004F09DFAC4F89002B0B12046FEF799
:1046200052F9002070BD4FF400763346022201217A
:104630002046FFF7EFFEC4F858513346022281218D
:104640002046FFF7E7FEE562E1E7022070BD0029A2
:1046500001D0C0F89412002070472DE9F8430546B8
:104660000C46D5F890720026B046CDF80080207830
:1046700010F060013CD0202907D021462846FFF7E2
:10468000E1FB02263046BDE8F8836178FE2907D0B9
:10469000FF291DD021462846FFF7D4FB0226F1E76B
:1046A000618879B9E18801290CD100060AD5D5F8CD
:1046B0009402806980473860012239462846FFF716
:1046C000D8FBDFE721462846FFF7BCFB0226D9E7E7
:1046D000618839B9E18829B9000603D42846FEF774
:1046E00015F9CFE721462846FFF7ACFB0226C9E7BC
:1046F000607858B1012836D00A2817D00B2825D069
:1047000021462846FFF79EFB0226BBE795F8740278
:10471000032805D021462846FFF794FB0226B1E77F
:10472000022269462846FFF7A4FBABE795F874021E
:10473000032805D021462846FFF784FB0226A1E77F
:104740000122391D2846FFF794FB9BE795F8740278
:10475000032805D021462846FFF774FB022691E77F
:10476000A07878608EE721792846FFF701FE21794D
:104770002846FFF739FDA0884FF0010701064FF4E6
:10478000007317D500F00F0000EB800005EB8000F0
:10479000C0F81880287C38B14023022281212846A5
:1047A000FFF738FEEF6217E0022281212846FFF76B
:1047B00031FEF7E700F00F0000EB800005EB800012
:1047C000C0F84481287C60B14023022201212846A0
:1047D000FFF720FEC5F8587121792846FEF718F832
:1047E00050E7022201212846FFF714FEF2E70A787B
:1047F00002704A7842708A78CB7802EB03224280BA
:104800000A794B7902EB032282808A79C97902EB1B
:104810000121C180704702460020002902D0C2F861
:104820008C127047022070470020704770B5044614
:104830008888002821D1C888F8B9488880281CD2E7
:1048400000F07F0594F8740203280DD084F87652A6
:1048500029462046FFF731FE2046FFF717FB45B1FA
:10486000022084F8740270BD2046BDE87040FFF756
:10487000E9BA012084F8740270BD2046BDE870409A
:10488000FFF7E0BA10B50224D0F88C22002A03D03A
:104890001268904700B90024204610BD70B5044648
:1048A0000E46304DB1782970012905D93146204690
:1048B000BDE87040FFF7C6BA94F8740202280BD026
:1048C000032823D031462046FFF7BCFA297820463A
:1048D000BDE87040FFF78CBA99B16160032084F89D
:1048E00074022046FFF7CEFF022804D02046BDE820
:1048F0007040FFF7CBBA31462046BDE87040FFF765
:10490000A1BA2046BDE87040FFF7C0BA91B1606817
:10491000884221D0C1B22046FFF76AFA2978616047
:104920002046FFF7AFFF022810D02046BDE87040B8
:10493000FFF7ACBA022084F8740261602046FFF7EA
:1049400057FA2046BDE87040FFF7A0BA314620462E
:10495000BDE87040FFF776BA2046BDE87040FFF72B
:1049600095BA0000B00000204988012903D1C0F8A1
:104970007C12FFF78BBA704710B5FFF7DDFD002002
:1049800010BD10B500240A7812F060020CD0202A65
:1049900005D0402A03D0FFF755FA204610BDD0F8C5
:1049A0008C2292689047F8E74A780A2A1BD2DFE8FF
:1049B00002F011171A141A08051A0E0BFFF701FB63
:1049C000EBE7FFF733FFE8E7FFF768FFE5E7FFF7FF
:1049D000DBFAE2E7FFF79AFBDFE7FFF7C5FFDCE76B
:1049E000FFF70DFAD9E7FFF72DFAD6E72DE9F041E9
:1049F00004460A4600261179137813F0600011D09E
:104A0000202808D0402806D011462046FFF71AFA81
:104A10003046BDE8F081D4F88C0211468368204608
:104A20009847F5E7C3F3411001280BD050780028D0
:104A300060D0012837D003280CD011462046FFF75C
:104A400001FAE5E7D4F88C02114683682046BDE8F8
:104A5000F041184794F87402022806D0032814D0B5
:104A600011462046FFF7EEF9D2E749B1802907D079
:104A70002046FFF758FD80212046FFF754FDC7E789
:104A800011462046FFF7DEF9C2E7508838B931B148
:104A9000802904D0D08810B92046FFF744FD204675
:104AA000FFF7F4F9B4E794F87402022806D003285B
:104AB00014D011462046FFF7C5F9A9E749B180296E
:104AC00007D02046FFF72FFD80212046FFF72BFD62
:104AD0009EE711462046FFF7B5F999E75088002870
:104AE00096D1480602D02046FFF775FB2046FFF717
:104AF000CDF98DE794F874020027022806D0032828
:104B000024D011462046FFF79DF981E731B1802975
:104B100004D011462046FFF795F979E7080607D536
:104B200001F07F0000EB800004EB8001143107E00E
:104B300001F07F0000EB800004EB800101F5A07123
:104B40000F6002222046FFF794F961E708060CD5B2
:104B500001F00F0000EB800004EB8000806968B971
:104B600011462046FFF76EF952E701F00F0000EB07
:104B7000800004EB8000D0F8440148B108060CD551
:104B800001F07F0000EB800004EB800514350CE0A1
:104B900011462046FFF756F93AE701F07F0000EB97
:104BA000800004EB800505F5A07541B1802906D091
:104BB0002046FFF71BFC20B10120286002E02F6097
:104BC00000E02F60022229462046FFF752F91FE736
:104BD00070B505460C46207810F0600209D0202AF6
:104BE00007D0402A05D021462846FFF72BF90020A0
:104BF00070BD95F87422012A08D0022A06D0032A33
:104C000004D021462846FFF71DF9F0E72079012856
:104C10000CD8D5F88C022146826828469047E18856
:104C20000143E4D12846FFF731F9E0E72146284661
:104C3000FFF708F9DBE7000070B50A784E7801232A
:104C400002F00F041C4DA340012E19D0D0F81C48CF
:104C500044EA0343C0F81C3800EB4210D0F8002BA4
:104C600012040BD4D0F8002B0B89C978C3F30A03C4
:104C70001A4345EA81410A43C0F8002B002070BD69
:104C8000D0F81C489BB21C43C0F81C4800EB4210F3
:104C9000D0F800391B04F1D4D0F800390C89C97858
:104CA000C4F30A048904234341EA82510B432B4392
:104CB000C0F80039E2E7000000800010D0F80019C9
:104CC0006FF30A01C0F80019D0F80818C1F34101C8
:104CD000022905D1D0F8001941F00301C0F80019EC
:104CE000D0F8041841F48071C0F80418002070470F
:104CF0000FB410B50446089801281AD0E06840F0B7
:104D00004000E060204600F033F80C9941B3A16BFD
:104D100021F48031A1630699012907D1A16841F0EE
:104D20000601A160A16841F02001A16010BC5DF8FE
:104D300014FBA06B20F48030A063E0680B490840AE
:104D4000E060E06820F44010E0600F98012803D193
:104D5000E06840F48010E060204600F009F8DAE7EF
:104D6000A16B41F48031A163D5E70000BFFFBDFF17
:104D700000210C4A491C914201D903207047036964
:104D8000002BF7DA0021036943F001030361491C9A
:104D9000914201D9032070470369DB07F7D1002056
:104DA00070470000400D030070B50B784E78012469
:104DB00003F00F0504FA05F2012E19D0D0F83C5883
:104DC00025EA0242C0F83C28D0F81C28097801F0F6
:104DD0000F018C4022EA0441C0F81C1800EB43107C
:104DE000D0F8001B0F4A1140C0F8001B002070BD16
:104DF000D0F83C5892B29543C0F83C58D0F81C28E3
:104E0000097801F00F018C40A1B28A43C0F81C2838
:104E100000EB4310D0F80019034A1140C0F8001904
:104E2000E4E700000078F3EF007833EC10B5D0F839
:104E3000041821F00201C0F804180320FBF7A6FBB8
:104E4000002010BD10B5D0F8041841F00201C0F8E0
:104E500004180320FBF79AFB002010BD0FB4F0B537
:104E6000044600260020002504EB8001C1F804510F
:104E7000401C0F28F8D3109868B3206820F4001164
:104E80002160A06B40F40021A163C4F8005ED4F857
:104E90000018C4F800180B98012829D003212046D7
:104EA00000F048FB1021204600F0BCFA00B10126BA
:104EB000204600F0A7FA00B10126C4F81058C4F843
:104EC0001458C4F81C5800204FF000624FF0904373
:104ED0004FF67F372DE0A06B40F40011A163A06B6B
:104EE00020F40021A163A06B20F48021A163CCE712
:104EF000089820B10121204600F01CFBD2E70021D8
:104F0000204600F017FBCDE704EB4011D1F800C9B3
:104F1000BCF1000F06DA10B1C1F8003904E0C4F8A2
:104F2000002901E0C1F80059C1F81059C1F8087909
:104F3000401C06998142E7D8002014E004EB4011A0
:104F4000D1F800CBBCF1000F06DA10B1C1F8003B7C
:104F500004E0C4F8002B01E0C1F8005BC1F8105B6D
:104F6000C1F8087B401C06998142E7D8D4F81008A4
:104F700020F48071C4F810180998012808D1144948
:104F8000C4F83018D4F8300812490843C4F830087F
:104F9000A5616FF080406061099818B9A06940F080
:104FA0001000A061A0690C490843A0610C9818B1D9
:104FB000A06940F00800A0611098012803D1A06901
:104FC00006490843A0613046F0BC5DF814FB0000C0
:104FD000000180000300010000383C800400004014
:104FE000816821F0010181600020704770B50C7864
:104FF0004E780B78414D00EB4313012E1FD0D3F8B0
:10500000100B6FF31200C3F8100BD3F8100B2840ED
:10501000C3F8100B486908B188684861D3F8100BD1
:1050200040F40020C3F8100BD3F8100B8C68C4F3C5
:1050300012042043C3F8100B012A53D056E04E69E6
:1050400096B3D3F810696FF31206C3F81069D3F85A
:1050500010692E40C3F810694E698D68AE4200D9C0
:105060004D6103F511631D6845F400251D601D6841
:105070004E69C6F3120635431D60012A23D000EBAA
:105080004412D2F8003943F00443C2F800394A69A7
:105090003AB3D0F83428097801F00F030121994080
:1050A0000A43C0F8342827E0FFE703F511631E68C0
:1050B0002E401E601D6845F400251D601D686FF3BD
:1050C00012051D60D9E7096919B100EB4412C2F855
:1050D000141900EB4410D0F8001941F00441C0F855
:1050E000001909E0C86808B1C3F8140BD3F8000B25
:1050F00040F00440C3F8000B002070BDFFFF07E044
:1051000010B5036C124CA34205D9D0F8003B002B1C
:1051100001DA002010BD00F5316000230360036850
:1051200043F400230360036843F01803036003683B
:1051300043F0C0430360A0F53160012906D100F5BA
:1051400030604261016841F080210160002010BDA3
:105150000A30544F4A780B78012A00EB43100BD0E9
:10516000D0F8002B22F40012C0F8002BC9780329D4
:1051700014D0022912D017E0D0F8002922F400122E
:10518000C0F80029C978032901D002290CD1D0F830
:10519000001941F08051C0F8001905E0D0F8001B5B
:1051A00041F08051C0F8001B002070470A784B780E
:1051B0000978012B00EB411012D0D0F8001B002918
:1051C00006DB2AB1D0F8001B21F08041C0F8001B9B
:1051D000D0F8001B41F40011C0F8001B00207047FC
:1051E000D0F80019002906DB2AB1D0F8001921F007
:1051F0008041C0F80019D0F8001941F40011C0F83E
:105200000019EBE7F8B50C784F780B78794D6FF013
:10521000604600EB4313012F26D0D3F8104B6FF3F9
:105220001204C3F8104BD3F8104B2C40C3F8104BAA
:105230004C69002C7ED08D682C44641EB4FBF5F4C0
:10524000A4B2D3F8105B06EAC4463543C3F8105B3A
:10525000D3F8105B8E686643C6F312042543C3F887
:10526000105B012A67D0A9E04F69FFB103F5116314
:105270001F686FF312071F601F682F401F604F6980
:105280008D682F447F1EB7FBF5F506EAC5451E68FD
:1052900035431D601D684E69C6F3120635431D6017
:1052A000A3F51163CD78012D0ED017E003F511633E
:1052B0001E682E401E601D6845F400251D601D6897
:1052C0006FF312051D6009E003F511631D6825F0F9
:1052D000C0451D601D6845F000551D60012A17D0AE
:1052E00000EB4413D3F8004944F00444C3F80049E8
:1052F000CC78012C36D04A699AB3D0F83428097892
:1053000001F00F03012199400A43C0F834286FE0EF
:105310000A691AB100EB4413C3F81429C9780129AA
:1053200017D1D0F80818C9050BD400EB4411D1F8F7
:10533000002901E02FE03DE042F00052C1F80029D1
:1053400007E000EB4411D1F8002942F08052C1F887
:10535000002900EB4410D0F8001941F00441C0F8D6
:10536000001945E0D0F80848E40506D4D3F8004910
:1053700044F00054C3F8004905E0D3F8004944F074
:105380008054C3F8004900928A8A93B20A78C968A7
:1053900000F052F92CE0D3F8104B8D68C5F31205DC
:1053A0002C43C3F8104BD3F8104B44F40024C3F83B
:1053B000104B56E7CA680AB1C3F8142BC978012903
:1053C00010D1D0F80808C00506D4D3F8000B40F07F
:1053D0000050C3F8000B05E0D3F8000B40F08050FC
:1053E000C3F8000BD3F8000B40F00440C3F8000BE7
:1053F0000020F8BDFFFF07E0816841F001018160F6
:1054000000207047002110220261054A491C914288
:1054100001D9032070470369DB06F7D400207047E9
:10542000400D03000022202343EA81110161054958
:10543000521C8A4201D90320704703699B06F7D4A6
:1054400000207047400D0300D0F8080800F0060067
:10545000002805D0022805D0062803D00F20704769
:105460000020704702207047406900F0010070473B
:10547000D0F81818D0F81C08084080B27047D0F84F
:105480001818D0F81C080840000C704710B5D0F868
:105490001038D0F8342801F00F04E24002F0010285
:1054A00043EAC21200EB4110D0F80809104010BDC9
:1054B00000EB4111D1F8081BD0F8140808407047E0
:1054C000416980690840704710B503460846D21C00
:1054D0009208002103F5805302E01C6810C0491CAB
:1054E0009142FAD310BD10B5C26822F0C042C2602A
:1054F000012902D031B1012010BDC16841F0005135
:10550000C16003E0C16841F08041C1603220FBF717
:105510003DF8002010BD00F50060026822F4FE6234
:10552000026002684FF4FE6303EA01110A4302605D
:1055300000207047D0F800280A43C0F80028002057
:1055400070470000022A0ED082B30921C26822F4FB
:105550007052C260C2684FF4705303EA81210A435B
:10556000C26000207047224A224B0A449A4201D26C
:105570000F21EBE7204A214B0A449A4201D20E2127
:10558000E4E71F4A1F4B0A449A4201D20D21DDE78E
:105590001D4A1E4B0A449A4201D20C21D6E71C4AEE
:1055A0001C4B0A449A4202D20B21CFE71DE01A4A53
:1055B0001A4B0A449A4201D20A21C7E7184A194BEA
:1055C0000A449A4201D20921C0E7174A174B0A44FC
:1055D0009A4201D20821B9E7154A1144154A91426D
:1055E00001D20721B2E70621B0E70921AEE70000AA
:1055F000405327FF00350C00401E1BFF40420F00A8
:1056000000DC0BFF804F1200808CF9FE20D61300C7
:1056100060B6E5FE60E3160000D3CEFE40771B00C7
:10562000C05BB3FEC091210000CA91FE2075380016
:10563000E05459FEE09C410010B5029C002C0CD1B6
:10564000DB1C9C08002300EB023000F5805002E0D8
:1056500004C902605B1CA342FAD3002010BD000005
:1056600010B500F0FDF8044910B10120087001E008
:1056700000200870087810BD00000020002908D024
:105680000B4801290FD0022905D0032907D0042097
:10569000704700207047808A108000207047C068E3
:1056A0001060002070470069106000207047000003
:1056B000240200202DE9F0410E46154698460024AC
:1056C000084F09E07A69304602FB05F100F0D2F894
:1056D0006D1C78690644641C4445F3D30020BDE882
:1056E000F0810000240200200248002101700078AF
:1056F00070470000000000202DE9F0410F461446DD
:10570000984600250A4E0DE07069604300F014F8D9
:105710007269384602FB04F100F026F9641C7069D6
:1057200007446D1C4545EFD30020BDE8F081000023
:1057300024020020FEE7000038B50546FBF70CF810
:10574000044620208DF80000280C8DF80100280A5E
:105750008DF802008DF8035000F068F9104D00221A
:1057600010212846FAF7F0FF4FF47A7304226946B5
:105770000C48FCF73FFC012210212846FAF7E4FF11
:1057800040F6B83506E0FAF7E7FF001BA84201D95A
:10579000032038BD00F008F80228F4D0002038BDFE
:1057A00000000240D43200207CB512A000680190B5
:1057B000114C002210212046FAF7C6FF4FF47A75EB
:1057C0002B46012201A90D48FCF714FC2B460122AF
:1057D00069460A48FCF766FB012210212046FAF7C9
:1057E000B3FF9DF80000C00701D002207CBD00205F
:1057F0007CBD00000500000000000240D432002003
:1058000038B504464FF48070A0610001606100016A
:10581000E060684600F05EF8BDF80000A0F56F405B
:105820001338052801D3012038BD00EE100AF8EE28
:10583000C00AB0EE000A00F077F9BCEEC00A10EE24
:10584000100A0005BDF80010216060606169B0FBBE
:10585000F1F12161E168B0FBF1F0A060002038BDFA
:1058600010B500F063F8BDE810400148FFF7C8BF6D
:1058700024020020F8B50546144603208DF80000E8
:10588000080C8DF80100080A8DF802008DF803104D
:105890000E4F002210213846FAF756FF4FF47A7661
:1058A0003346042269460A48FCF7A4FBA2B23346F9
:1058B00029460748FCF7F6FA08B10120F8BD012295
:1058C00010213846FAF740FF0020F8BD00000240E2
:1058D000D43200207CB5044611A000680090114D20
:1058E000002210212846FAF72FFF4FF47A7633462C
:1058F000042269460C48FCF77DFB3346022201A9CD
:105900000948FCF7CFFA9DF805009DF8041000EB5C
:1059100001202080012210212846FAF715FF7CBDC6
:105920009000000000000240D432002038B50BA0E7
:10593000006800900A4C002210212046FAF704FF6C
:105940004FF47A73022269460648FCF753FB0122A2
:1059500010212046FAF7F8FE38BD000066990000D5
:1059600000000240D43200202DE9F84F07460C46D3
:105970001646FAF7F1FE8046002001E000F580703F
:10598000A042FBD9051BB54200D935462644DFF8B5
:1059900094A04FF0020B4FF47A798DF800B0200CF0
:1059A0008DF80100200A8DF802008DF8034000F008
:1059B0003DF8002210215046FAF7C6FE4B4604225D
:1059C00069461948FCF716FB10B10120BDE8F88FB5
:1059D000AAB24B4639461448FCF70CFB08B101202B
:1059E000F4E7012210215046FAF7AEFE07E0FAF77D
:1059F000B3FEA0EB0800484501D90320E6E7FFF716
:105A0000D3FE0228F3D02C442F4404F58070B0421A
:105A100001D9351B01E04FF48075B442BDD300209D
:105A2000D4E7000000000240D4320020F8B515A0F1
:105A300000680090FAF790FE0446134E00221021F1
:105A40003046FAF781FE4FF47A752B4601226946FB
:105A50000E48FCF7CFFA012210213046FAF774FE07
:105A600009E0FAF779FE001BA84201D90320F8BD2E
:105A7000012004F0AFF8FFF797FE0228F1D00020D4
:105A8000F8BD00000600000000000240D4320020F3
:105A9000401EB0F1807F01D3012070474FF0E0211C
:105AA0004861044AFF2010700020886107200861C7
:105AB0000020704723ED00E00FB4084B10B504A997
:105AC00002AA039800F0FCFB044602A9002000F0A3
:105AD000B7FD204610BC5DF814FB000041660008CD
